:1020000000800020C18C0000898A0000A98C00009B
:1020100000000000000000000000000000000000C0
:10202000000000000000000000000000A98C00007B
:102030000000000000000000A98C0000158D0000C9
:10204000A98C0000A98C0000A98C0000A98C0000BC
:102050004D8A0000A98C000091330000AD8C000077
:10206000A98C0000CD6A0000A98C0000A98C00009A
:10207000A56A0000A98C0000DD6A0000A98C0000A0
:10208000A98C0000A98C0000A98C0000A98C00007C
:1020900000000000A98C0000A98C0000A98C0000A1
:1020A000A98C0000A98C0000A98C0000A98C00005C
:1020B0000000000010B5064C2378002B07D1054B1B
:1020C000002B02D0044800E000BF0123237010BDA4
:1020D000F002002000000000FCF70000044B10B5E7
:1020E000002B03D00349044800E000BF10BDC046E8
:1020F00000000000F4020020FCF700007047806838
:1021000010B5002802DB002107F070F80A2006F065
:1021100045FE10BD806810B5002802DB012107F0E4
:1021200065F80A2006F03AFE10BD806810B5002858
:1021300002DB002107F02AF8002010BD806810B5EE
:10214000002802DB012107F021F8002010BD10B5A6
:10215000040006F0B3FE200010BD37B56B460C003E
:102160009D1D290000F004FF2B8823603EBD000068
:1021700013B56B469C1D210000F0EAFE034B20883E
:10218000C018431E9841404216BDC0465411FFFF7F
:1021900010B500F0FFFC10BDF8B5030000270C33AC
:1021A00004000E001500476039008260436103227D
:1021B0000D3009F0DDFC52232373034B200027610F
:1021C000A67665762360F8BDACE9000013B56A46D3
:1021D0000023911D0400D38000F0BAFE6B462076E8
:1021E000D88816BD73B504001A2020560D001600BD
:1021F000431C14D0012106F0C9FF1A2001212056EA
:1022000006F0F4FF1A200021205606F0EFFF05200B
:1022100006F0C4FD1A200121205606F0E7FF052034
:1022200006F0BCFD300004F0D3FA6A460023D371F7
:10223000236820001B6A2661666098472368200097
:10224000DB696D009847E9B2200000F012FC050040
:102250006B46DB79002B0BD1002D0FD16B46200094
:10226000D91D00F085FD0500022006F097FDEFE77F
:10227000002D03D1200000F08DFC05000020257604
:10228000854207D12000FFF7A1FF034BC01843424E
:102290005841C0B276BDC0463415FFFF37B56B4616
:1022A0005D1D2900040000F072FD2B782076184394
:1022B000C0B2002802D0012040423EBD6B469D1DA9
:1022C0002900200000F054FE20760028F3D10023DE
:1022D000E85EF2E710B5040000F0D6FB207643423A
:1022E0005841C0B210BD10B5040000F0D4FB2076F8
:1022F00043425841C0B210BD13B56A460023D11DF8
:102300000400D37100F02AFC6B462076D879431E76
:102310009841C0B216BD10B5040000F083FC2076D1
:1023200043425841C0B210BD37B56B460024991DD9
:102330000500DC8000F0C0FD030028762000A342E9
:1023400001D16B46D8883EBDE12110B51248490243
:1023500005F09AF800F06CFA00F0AAFA02211120B8
:1023600006F014FF042211200C4906F06DFA06F065
:10237000DFFC10220A4B1968002904D0013A1433FB
:10238000002AF8D110BD074A59601A60064A9860C1
:10239000DA6001221A61F5E78012002011260000A0
:1023A00038030020712700008813000070B50C4E20
:1023B0003000FFF773FF04000A4D0B49280004F0BA
:1023C00065FC0A222100280004F0F3FC28000749DC
:1023D00004F094FC3000FFF77DFF200070BDC04684
:1023E0009804002080120020D0E90000DBE9000002
:1023F000F8B50500040001264135FF35AC421DD07B
:102400002368002B11D006F093FCA368E268070054
:10241000C31A9A4209D8606823689847002806D0F2
:102420002369002B03D02661A7601434E6E700235C
:1024300023606360A360E3602361F6E7F8BD0000FA
:1024400010B50C4C2000FFF7D3FF06F071FC236899
:10245000002B06D1084B14349C42F8D106F068FCDE
:1024600010BD06F065FCA368C01AE3689842F1D37A
:10247000F4E7C0463803002078040020F7B50024B4
:102480001148230022002100009404F0A3FB0F4D0B
:102490000F49280006F050FB0E4F0F4E3A00310056
:1024A000280007F01BF80D4D0D49280006F044FBED
:1024B0003A003100280007F011F8A0222100520054
:1024C000084809F055FBF7BD280300200C03002045
:1024D000DFE9000000000020A98A00001C030020A2
:1024E000E4E900003803002030B53B4B3B4D1A684F
:1024F0003B4C87B02900200092B201F0F7FD002884
:1025000068D0384903A806F03AFB374903A806F01B
:10251000A3FB364906F093FB354906F09DFB01000D
:10252000200004F0E1FB03A806F0BEFA314968463A
:1025300006F002FB290003A806F0FEFA03A968468C
:1025400006F07DFB0100200004F0CEFB03A806F09E
:10255000ABFA684606F0A8FA2749200004F0CEFB43
:102560002649684606F0E8FA254B0222196803A8B6
:1025700006F032FB03A9684606F061FB010020006B
:1025800004F0B2FB03A806F08FFA684606F08CFA56
:102590001C49200004F0B2FB1B49684606F0CCFA47
:1025A0001A4D0A22296803A806F004FB03A968460D
:1025B00006F045FB0100200004F096FB03A806F09E
:1025C00073FA684606F070FA200004F07BFB2B6873
:1025D00001332B6007B030BD1C0000200400002038
:1025E000800400200C03002040F500001C030020A4
:1025F000EBE90000F5E90000FCE9000013EA000047
:102600003403002024EA000031EA0000180300200F
:1026100070B51049104804F071FB1048FFF76CFECC
:10262000002816D00E4D0F4C2B882380FFF7BEFEDE
:102630000022A35E2880181A07F03CFB0A4B196899
:1026400007F01EFA094907F00FF9094B1860FFF768
:102650004BFF70BD49EA0000801200209804002062
:10266000300300203203002020000020000004423C
:102670003403002030B5314B314D1A68314C87B0EE
:102680002900200092B201F031FD002854D02E49DB
:1026900003A806F074FA2D4903A806F0DDFA2C49C8
:1026A00006F0CDFA2B4906F0D7FA0100200004F01D
:1026B0001BFB03A806F0F8F92749684606F03CFA28
:1026C000290003A806F038FA03A9684606F0B7FA0D
:1026D0000100200004F008FB03A806F0E5F96846B5
:1026E00006F0E2F91D49200004F008FB1C49200017
:1026F00004F004FB1B49200004F000FB1A49684663
:1027000006F01AFA194D0A22296803A806F052FAAF
:1027100003A9684606F093FA0100200004F0E4FAE9
:1027200003A806F0C1F9684606F0BEF9200004F0DF
:10273000C9FA2B6801332B6007B030BD1C000020A4
:1027400004000020800400200C03002040F500005D
:102750001C030020EBE90000F5E90000FCE90000A3
:102760005CEA00006EEA000031EA00001803002075
:102770007FB5FFF77FFF0E4903A806F0DDF91120B2
:1027800006F060FD0A220100684606F013FA694669
:1027900003A806F054FA0100064804F0A5FA6846BA
:1027A00006F082F903A806F07FF9012007B000BD0A
:1027B0007BEA00008012002037B5174C1749200033
:1027C00004F06FFA164D280001F069F901002000AD
:1027D00004F094FA280001F060F90100684604F062
:1027E00007FA20000F4904F05CFA6946200004F063
:1027F0008FFA280001F060F905000B49200004F071
:1028000050FA29000A22200004F0B4FA20000749F7
:1028100004F074FA37BDC04680120020E0EA0000E0
:10282000FC06002085EA000092EA0000AAEA000007
:102830000223F7B5164C0093200007220821DB186D
:1028400000F0A4FF200001F061F9FF2804D1114934
:10285000114804F053FAFEE7104D2B68032B13D0F8
:102860000D4F0F49380004F01CFA0E4E38003100AD
:1028700004F044FA310020000B4A01F099F8286076
:102880000A4806F08BFAE7E7FFF796FFF7BDC04668
:10289000FC060020AFEA0000801200209404002013
:1028A000C7EA0000330000202400002010270000A9
:1028B00070B53E4C8AB0200003F08AFF3C4D2200E8
:1028C000002329212800FFF78DFC3A4C00280DD168
:1028D0003949200004F0DAF918210A22200069564B
:1028E00004F06BFA0A2006F059FAFBE7334920009E
:1028F00004F0F0F93249200004F0C8F92800FFF78D
:1029000065FC10220100200004F057FA2800FFF7B0
:10291000EAFC00280DD12B49200004F0B7F918215A
:102920000A222000695604F048FA0A2006F036FA16
:10293000FBE72000244904F0CDF921212800FFF70E
:10294000EAFC2249200004F0A1F92800FFF7ECFC82
:102950000A220100200004F030FA0E260123FA2298
:102960000093120102336E44FA21280000F04CFA61
:102970003100280000F07DFA154907A806F0DCF8C0
:102980000A22318804A806F015F904A907A806F060
:1029900056F90100200004F0A7F904A806F084F815
:1029A00007A806F081F80AB070BDC0463C0A0020B6
:1029B0009804002080120020E7EA000004EB0000E9
:1029C00017EB000025EB00003EEB00004EEB000093
:1029D00063EB000013B500210A480B000A000091C8
:1029E00004F0F8F8084C032202212000FFF7D4FB82
:1029F000064A0749200006F071FD064801F0ECFA8E
:102A000013BDC04678040020980400200000002078
:102A1000FD20000080040020F7B5170005001C0011
:102A2000406808AB49081E887FBA03F0F1FE686869
:102A300001A90F80036802225B689847A61968689D
:102A4000B44205D0036821781B6898470134F6E743
:102A5000012103F05BFF0020FEBD1FB51C000F230A
:102A60006B441C70012409780094FFF7D5FF04B073
:102A700010BD70B504000D004B0801224169FFF73D
:102A8000ECFF63691D7070BD10B50123862241699A
:102A9000FFF7E3FF10BD10B5402387224169FFF720
:102AA000DCFF10BD10B5002387224169FFF7D5FF79
:102AB00010BD1FB51C0003AB64BA1C80022409784A
:102AC0000094FFF7A9FF04B010BDF0B50400170093
:102AD00085B001930AAB1E884D082900606803F099
:102AE00097FE03A960687BBA0B80036802225B68CB
:102AF00098470021606803F009FF0028EDD1290004
:102B00006068F2B203F0D7FE019D606803681B693C
:102B10009847002806D0606803685B69984728706A
:102B20000135F2E705B0F0BD13B501240978009432
:102B3000FFF7CBFF431E9841404216BD37B56B46A9
:102B4000DD1D2B000C0030224169FFF7EDFF012253
:102B50002B78DB06DB0F534023703EBDF7B56B4689
:102B6000DD1D0C0029000700FFF7E8FF6B469E1DE6
:102B70003300312238007969FFF7D6FF002806D1EB
:102B80000122337829781340994201D12270FEBD89
:102B90002070FCE773B56B4600250400DE1D357020
:102BA0002A00154B2D32EB5C2000616992B2013591
:102BB000FFF753FF5B2DF3D12000FFF76CFF337855
:102BC000002B04D131002000FFF7C8FFF7E70025F4
:102BD00020003570FFF758FF2000FFF763FF6169A1
:102BE000092308222000FFF738FF2B000B222000CA
:102BF0006169FFF732FF76BD71EB000037B56B46B8
:102C0000DD1D2B000C004B224169FFF78DFF2B7857
:102C1000142B02D1133B23803EBD0A2BFCD1083B71
:102C2000F9E70000F7B56B469F1D0D003900040061
:102C3000FFF7E4FF3B880600002B0BD0012B4CD1A3
:102C4000322D30D008D8142D25D0D623212D23D0D5
:102C50000F2D12D001261CE0C82D2ED0FA225200D2
:102C6000954232D0642DF5D1394B5E222000616946
:102C7000FFF71FFFE2239B0006E01D235E222000DA
:102C80006169FFF716FF2723612220006169FFF7C2
:102C900010FF3000FEBD51235E2220006169FFF766
:102CA00008FF6E23F0E7D7235E225B0020006169F6
:102CB000FFF7FFFEF4235B00E6E7264B5E222000D1
:102CC0006169FFF7F6FE244BDEE7244B5E2220000D
:102CD0006169FFF7EEFE224BD6E7642D26D00DD8B2
:102CE000212D19D0322D19D0142DB3D11E235E22DF
:102CF00020006169FFF7DDFE2223C5E7C82D1ED045
:102D0000FA235B009D42A5D1164B5E22200061692B
:102D1000FFF7CFFE144BB7E76023BDE7AD235E227C
:102D200020006169FFF7C5FEC623ADE7E6235E22FA
:102D30005B0020006169FFF7BCFEF523BBE70B4B8E
:102D40005E2220006169FFF7B4FEBE2393E7C04610
:102D5000E1020000E103000096040000910500007C
:102D6000C10500008F040000A4040000D902000087
:102D700013B500236A46D3716B460C00E522416906
:102D80000733FFF7D1FE6B46DB79237016BD37B5ED
:102D90006B46DC1D230089220D004169FFF7C4FE4C
:102DA0001F22030020781040033814282AD806F088
:102DB0009DFB191317111D150B29291F27292929D7
:102DC00029211B292923250000222270227818009E
:102DD0002A703EBD0122F8E70222F6E70322F4E75B
:102DE0000422F2E70522F0E70622EEE70722ECE7ED
:102DF0000922EAE70A22E8E70B22E6E70C22E4E7E9
:102E00000D22E2E7FF22E0E7F0B585B000930AABC0
:102E10001B780E00019302ABDD1D002341692B706E
:102E200017002B0046220400FFF77EFE47222B7876
:102E300000991340403A1140019A2B700B43002A2D
:102E400013D1DBB2463261692000FFF706FE3B007A
:102E5000616972222000FFF72CFE330074222000EB
:102E60006169FFF726FE05B0F0BD4022134306322C
:102E7000E9E737B56B46DD1D2B000C0046224169A2
:102E8000FFF752FE07222B78134023803EBD30B55A
:102E90001D00002385B003AC238002330978009322
:102EA0002300FFF712FE002804D122786378120273
:102EB0009B182B8005B030BD37B56B469D1D2B0090
:102EC0005E220C004169FFF7E2FFD7222B885200F7
:102ED00093422FD010D8512B2AD005D81D2B24D0A7
:102EE0001E2B25D0002321E0AD2B23D0D62B01D0E3
:102EF000602BF7D1212319E0104A93421CD00BD844
:102F00000F4A934218D00F4A934203D0163AFF3A21
:102F10009342E7D1642309E00B4A934202D00B4A63
:102F20009342DFD1FA235B0000E00F2323803EBDF4
:102F30001423FBE73223F9E7C823F7E7E103000096
:102F4000D9020000E10200008F040000910500009A
:102F500013B500236A46D3806B4610220C0006335B
:102F60004169FF32FFF793FF6B46DB88238016BD74
:102F700013B500236A46D3806B460C009622416944
:102F80000633FFF784FF6B46DB88238016BD000005
:102F900010B500F049FB0022024B8000C3584933B2
:102FA0001A7010BD08050020F0B5040085B01E00A1
:102FB0000AAB1B78103001930BAB1B781700029300
:102FC0000CAB1B780D00039300F0B0F92000243007
:102FD00000F0ACF9220000234832A363E3632364CA
:102FE00063641370537063729D4205D12721084BAF
:102FF000084A094808F022FD2000019B2560637102
:10300000029B2771E371039BA671237205B0F0BD8B
:10301000CCEB0000DDEB000031EC000030B504002B
:1030200085B002AD00680291039203F080FF6B79D6
:10303000227AE17920680093002304F037F9297996
:10304000029A206803F098FF206803F066FF05B03D
:1030500030BD10B50400006803F052FF0023637216
:1030600010BD000007B5837A00910192002B07D0B4
:103070009A070AD5EFF310835A425341C37272B6CE
:103080000099019AFFF7CAFF07BDDB07F8D5C368AF
:10309000014A9BB29360F3E700180040837A002B4B
:1030A00005D09A0704D5C37A002B00D062B67047CA
:1030B000DB07FCD5C368024A9BB2D360F7E7C04682
:1030C0000018004010B5006803F03AFF10BD000082
:1030D00010B5006804F03EF803000020834203DBD3
:1030E0000C304343014A985810BDC04698EC00008C
:1030F00010B5006804F02EF8002805DB0C234343CC
:103100000348C018406810BD01204042FBE7C0469C
:1031100098EC000010B5006804F01CF8002805DBEE
:103120000C2343430348C018806810BD012040426F
:10313000FBE7C04698EC0000F0B50600103605002D
:1031400089B0300000F048F900286CD12F002437F6
:10315000380000F041F9041E62D12800FFF7DAFFC1
:10316000C1B2300000F018FA0221300000F038FA45
:1031700001222E49300000F00BFA300000F054FA22
:103180002B4B8000C5502800FFF7B2FFC1B23800BA
:1031900000F002FA0221380000F022FA380000F0B4
:1031A00043FA234B8000C5502800FFF791FF01230D
:1031B0000100220002933000230004940394019440
:1031C000009400F033FAA8632800FFF781FF012381
:1031D0000200210001933800230004940394029418
:1031E000009400F023FAE863402008F091FC2A00E4
:1031F00048322864079200280BD0012313706864BA
:103200006B6C10221819E96B103408F095FC402CF7
:10321000F6D1079B1B78002B05D1380000F076F91A
:10322000300000F073F909B0F0BDC046912F0000E6
:103230000805002070B5437A0400002B03D1012259
:1032400043814272C360230048331B78002B02D1B4
:103250002000FFF771FF18263300082120790D4D5B
:103260004343EB18595606F005F833000821A079BE
:103270004343EB18595605F0FDFF0821607946439A
:10328000AD19695605F0F6FF034B200006CBFFF79A
:10329000C5FE70BD7CEE0000000500201FB5094A88
:1032A000094B0A4913600023938002930133019371
:1032B00016330093162201330548FFF775FE05B05B
:1032C00000BDC0460005002000093D007812002026
:1032D000B4040020084B1968002909D1EFF31080CD
:1032E000064A002803D172B6BFF35F8F0131117017
:1032F0001A6801321A607047C8060020C406002010
:10330000084B1A68002A0CD01A68013A1A601B6828
:10331000002B06D1044B1B78002B02D0BFF35F8F2C
:1033200062B67047C8060020C4060020FF2310B50F
:103330000370C023002104009B0041704180838002
:103340000C22083008F014FC200010BD01230A00F4
:1033500010B51A40194208D00C4A13700333437059
:103360008368002B00D0984710BD0223194204D077
:1033700006490B70C3684270F3E704231942F3D087
:10338000024A1370033343700369EAE74E48004171
:1033900010B5FFF79FFF0C4B1B8C1B071B0F0B2B54
:1033A0000FD80A4A9900885800280AD00F240849E3
:1033B0000A78A24313430B70064B1978C9B2FFF782
:1033C000C5FFFFF79DFF10BD00480041CC0600205F
:1033D0003F4800414E480041F8B5002302780500FF
:1033E00018000B2A77D93C4E2B702B780B2B07D863
:1033F00001229A403168114204D001332B70F4E766
:10340000012068E0FFF766FF3768344C002F2BD1AE
:103410002022334B334859690A435A611022D96933
:103420000A43DA61022223883900934323802388E8
:10343000013A134323802C4B6063BF32A36308F02F
:1034400097FBC0223900284808F092FB4022C12097
:10345000264B80002380264B26491A601A581140BB
:10346000C02212040A431A5001231A002978306836
:103470008A40024332600F261F4A880085501F4849
:1034800031400278B2430A43027002201C4A11788C
:1034900081431170117819431170297822698B408A
:1034A0009A43226160223F21636C934363642A79CB
:1034B000636C0A40134912020B40032113436364F7
:1034C0006A79636C0A40104992050B4013436364A8
:1034D000FFF716FF0020F8BDC0060020004800419D
:1034E000000400400006002040050020020F0000FC
:1034F00000E100E0FFFF00FFCC0600203F48004154
:1035000040480041FFC0FFFFFFFF3FFF70B50500CF
:10351000FFF7E0FE6B785CB2062B2BD02B780224F1
:103520000B2B27D801229A40144B1968114221D045
:103530001968914319601B68002B14D14022104B6D
:10354000DA67BFF34F8FBFF36F8F21000D4A0E3143
:103550001388A34313800C4BDA698A43DA615A69F2
:1035600010318A435A6100242B78084A9B009C50F2
:10357000FF232B70FFF7C4FE200070BDC0060020A3
:1035800004E100E00048004100040040CC060020B7
:103590000232920011507047037870B505000C009C
:1035A00001710B2B14D8FFF795FE29780F250948D8
:1035B00029400378084AAB430B4303703F23516C07
:1035C0001C40064B240219400C435464FFF798FE3C
:1035D00070BDC0463F48004100480041FFC0FFFFAA
:1035E000037870B505000C0041710B2B14D8FFF760
:1035F00071FE29780F25094829400378084AAB4312
:103600000B4303700323516C1C40064BA405194067
:103610000C435464FFF774FE70BDC0463F48004140
:1036200000480041FFFF3FFF00787047F0B587B0CA
:1036300001930CAB1E780DAB1B78050002930EAB0B
:103640001B780078039310AB1F78049105920B2828
:1036500002D9002007B0F0BD6B78062BF9D0AB780B
:10366000002B00D179E01021080008F047FA00286B
:10367000EFD02B783B4A1B019B181A00D168002918
:1036800004D0D1688B4201D0D268F7E7D060012224
:103690000223AA70964203D0DB18022E00D013003A
:1036A00006240188114301800188A143018001881B
:1036B0001234A1430180153C018826402A4C360271
:1036C00021400E430680029E0188284C164021406E
:1036D000B6020E430680039E0188254C1640214009
:1036E000F6020E4306800188224E3A403140120312
:1036F0000A43072102800F9A114002884903D2042D
:10370000D20C0A4302806A4692884280049A426040
:10371000029A002A08D0019A41685A43002F01D02A
:103720000F9CA2408A184260059A8260039A002A80
:1037300009D0019A84685A431300002F01D10F9ACF
:103740009340E31883600023EA789A4203D02B78F1
:10375000044A1B019B18C3607CE7024B0001C018A0
:1037600095E7C04600060020FFFCFFFFFFFBFFFFC0
:10377000FFF7FFFFFFEFFFFF014B19627047C046E5
:10378000FC06002010B502F0A7FF10BD10B5064CD6
:1037900002A82170054900780A70054A40B21370EA
:1037A000044B187010BDC04652000020530000208A
:1037B000540000205100002030B587B0040000F014
:1037C0000BFD2F4B6846009301F086F9051E10D0C3
:1037D00003000D330DD00300103307D00021062065
:1037E00001F04CF80121032001F035F8280007B062
:1037F00030BD02F033FA2349234802F04BFA21008E
:1038000000230122293122600B70E2611F4A2361EB
:103810006361A3612362636212681D4B9A4202D9FD
:10382000D32001F03EF80121042001F027F8012106
:10383000052001F023F80121062001F01FF80121E5
:10384000042001F008F80121052001F004F801210D
:10385000062001F000F80121080001F00FF8012115
:10386000022001F00BF80121032001F007F80121EB
:10387000080000F0F0FF0121022000F0ECFFB1E7AA
:10388000853D00007937000085370000BC07002027
:103890004F130000F8B503680400002B01D1FFF7B7
:1038A0008BFFE369002B03D0002323616361A361D5
:1038B000250001F04DF92935002802DA042028708E
:1038C000F8BD0123238505F033FA0727060005F02C
:1038D0002FFA236F801B984205D2002001F034F9A3
:1038E0002B783B42F3D02000212200214D3008F0FC
:1038F0003FF92A780323110019401A4203D12834D2
:1039000021702878DCE701F021FA002001F01CF991
:10391000F7E7F7B51F00036804000D001600002B41
:1039200001D1FFF749FFE369002B03D00023236196
:103930006361A361280009F031F8FF233200C1B2AE
:10394000009328003B00260001F095F92936002855
:1039500004DA042333701E003000FEBD01232385EA
:1039600005F0E6F9070005F0E3F9236FC01B984264
:1039700006D2002001F0E8F8072233781342F2D093
:103980003678032332001A401E4202D12300283326
:103990001A704D3421220021200008F0E9F8280097
:1039A00008F0FCFF29000200200008F0C5F8D3E76A
:1039B00010B513000222FFF7ACFF10BDF0B51E00DA
:1039C000036804000D001700A5B0002B01D1FFF71C
:1039D000F3FE8822002102A808F0CAF8290002A8F4
:1039E00008F0D4FF02AB0233DE773F23012602AAA0
:1039F0009B181E701C4B32001293390013AB02A8A7
:103A00001E7001F05BF9230029330193002803DACB
:103A10000B20187025B0F0BD2700144B4D372385BF
:103A200021220021380008F0A3F8280008F0B6FF92
:103A300029000200380008F07FF82000412102AB85
:103A40000422C918103000F093FC094B0021636177
:103A500023690420A36100F011FF0021300000F071
:103A60000DFF019B1878D5E700C0A801020A0000ED
:103A7000FFFFFF0013B50C00080001F011F96846C4
:103A800001F00EF96B462200A11D5879013B107020
:103A900001328A42F9D1200016BD00697047020048
:103AA000293212780300032A03D0073A0020012AA2
:103AB00001D84D3318007047F8B5030028331B7840
:103AC0000400002B1FD00025002001F03DF82562E6
:103AD00001F0DAF803002800AB4213DB05F028F907
:103AE000FA270500BF00266A002E08D105F020F94C
:103AF000401BB84203D2300001F026F8F3E7002360
:103B0000206A2362F8BD64204042FBE7036810B5D9
:103B10000400002B01D1FFF74FFE2934002001F0F3
:103B200013F8207810BD000030B587B004000D00F8
:103B3000FFF7B0FE032811D069462000FFF79AFF77
:103B40006B466A461B785278074902A808F0FEFEC9
:103B50002B002000054A02A9FFF730FF2000FFF7E5
:103B6000D5FF07B030BDC046E0EC0000F1EC00002E
:103B700010B50121FFF7D8FF10BD0000F0B504001B
:103B8000150085B0132900D1ADE013D8092900D163
:103B900078E007D8042900D170E0062900D1CFE0F1
:103BA00005B0F0BD1129FBD11378002BF8D002230A
:103BB00029340DE02C2924D00CD81B2900D1D4E0C5
:103BC0002A29EDD10023D356002BE9D0062329342E
:103BD0002370E5E73229E3D1030028331E78012E54
:103BE000DED1136829340361D3680021436153682F
:103BF000836103230420237000F040FE0021300085
:103C00000EE01378012B13D1030028331B78012B0E
:103C100009D1C1690029C3D104202934023323709A
:103C200000F02CFEBCE7032BBAD129340533CFE7D3
:103C3000002BB5D1020028321278012A18D10200D7
:103C4000062129321170C269002A02D00361436142
:103C50008361002461B24A48013402F0ABFB0B2CB3
:103C6000F8D10121042000F009FE01210800D7E766
:103C7000032AF6D1072329342370F2E70023D35611
:103C800023628DE7130063331E78002E24D10700D2
:103C90004D3731002122380007F06AFF280008F074
:103CA0007DFE29000200380007F046FF23000122B4
:103CB00028331A70280026616661A66108F06EFE3E
:103CC0002A002B00C1B2FF2062321278213300900B
:103CD000280000F0D0FF63E703000B2229331A709D
:103CE000FFF746FF5CE717000A373800260008F0A8
:103CF00055FE2A36039021220021300007F038FFBC
:103D00006B469B89002B05D06B46390030009A89A1
:103D100007F012FF636A002B08D02B00AA1F587A05
:103D2000666AE91A013B70549A42F8D10123EB56B6
:103D300023622300AA784B331A70EA785A7036E768
:103D4000436A002B0BD0110000232B315A428A5CAE
:103D5000606AC2540133062BF8D10023636220004D
:103D600029004D3008F012FE1AE7006A002800D141
:103D700016E70822290007F0DFFE002380E7C0468F
:103D8000C807002010B50A0001000248FFF7F6FE40
:103D900010BDC046FC060020F7B506001000170055
:103DA000019102F02DFF0124051E16D1010005200E
:103DB00000F064FD2900022000F060FD01983562EA
:103DC00002F002F900280ADA2100052000F056FD71
:103DD0002100022000F052FD2C002000FEBD04F066
:103DE000A7FF0400356A002D09D104F0A1FF0D4B97
:103DF000001B984203D8280000F0A6FEF2E700243A
:103E00000121052000F03AFD0121022000F036FDDD
:103E1000316AA142E1D0380002F016FF3462013469
:103E2000DBE7C0461F4E000013B500240648230000
:103E300022002100009402F0CDFE044B044A1A85B2
:103E4000044A1C601A6713BD70070020FC0600209E
:103E500000FFFFFF60EA00000020704713B56B46CB
:103E60000268D9710733546819000122A04716BDB2
:103E700013B56B46DC1D0368012221005B6A98477D
:103E8000012801D1207816BD01204042FBE7704790
:103E9000007C40B20130431E9841C0B27047000020
:103EA000102110B541560400002904DB024802F03D
:103EB00081FAFF23237410BDC8070020102110B51C
:103EC000415600204B1C02D0014802F01AFA10BDE6
:103ED000C8070020036870B51B6904000D001600B8
:103EE000984780B2002807D0102133002A0061567D
:103EF000034802F0FCFA70BD01204042FBE7C046D7
:103F0000C8070020036810B51B6904009847002803
:103F100005D010210348615602F0BEFA10BD012001
:103F20004042FBE7C8070020102110B54156002091
:103F3000814202DB014802F0D5F910BDC80700201C
:103F4000102213B58A560400531C07D100210B0020
:103F50000A00009102F03EFE200016BD014902F069
:103F6000E4F9F9E7C8070020102170B541560500B3
:103F700000204B1C0DD0074E300002F0E0F910215C
:103F800004006956300002F0DAF9240200122043DE
:103F900080B270BDC807002070B5037C04000E001D
:103FA00015007F2B06D8002A04D00368DB6A9847E7
:103FB000002804D1012300256360280070BD102172
:103FC0002B0032006156034802F0BEF90028F4DCF1
:103FD000F0E7C046C807002000234360FA239B0097
:103FE0008360034B08330360FF2303747047C046AC
:103FF000FCEC0000F0B51F000223040089B002A809
:1040000003814B6852BA0393059323684281DB6AAC
:1040100020009847002803D0236820009B6A984717
:10402000184E3B0001220221300002F003F9050086
:1040300020740020854223DBFB070ED50E9B8342B4
:104040000BD0180000F0A6F90E9B019000930223FC
:1040500029001A00300002F0FEF810211023300071
:10406000615604AA02F002F905000120002D07D1D3
:1040700010213000615602F09DF9FF2328002374BF
:1040800009B0F0BDC80700207FB5064B04934B680C
:1040900004A90393059300230093FFF7ABFF07B038
:1040A00000BDC046D4F20000F0B50C0089B0050098
:1040B00004A816001F0002F085FD2100094804AA8B
:1040C000FFF76AFE00280BD0074B32000693059BD2
:1040D00028000393079300943B0006A9FFF78AFF8B
:1040E00009B0F0BDFC060020D4F2000010B500239A
:1040F000FFF7DAFF10BD000007B5002103480B00F1
:104100000A00009102F066FD07BDC0467807002056
:1041100007B5002103480B000A00009102F05AFD88
:1041200007BDC0468007002007B5002103480B00EB
:104130000A00009102F04EFD07BDC046880700202E
:1041400007B5002103480B000A00009102F042FD70
:1041500007BDC0469007002007B5002103480B00AB
:104160000A00009102F036FD07BDC0469807002006
:10417000034B10B51B68002B00D0984710BDC046FC
:10418000A007002010B504F05FFB10BD10B504F0CF
:104190001DFC10BD10B50400013C00D210BD012073
:1041A00004F0FCFDF8E70000002010B5094C205693
:1041B00000280DDB002105F019F86420FFF7EAFF65
:1041C00000200121205605F011F86420FFF7E2FFDE
:1041D00010BDC046540000200022002010B5104B36
:1041E000104C1A602056904207DB012104F0CEFFEC
:1041F00000200121205604F0F9FF00200A4B002185
:10420000185604F0C3FF0020084B1856002802DBA4
:10421000022104F0BBFFFFF7C7FF002010BDC0461E
:10422000A00700205400002053000020510000206F
:10423000054B10B518600020044B032218560449A2
:10424000FFF7A0FF10BDC046A007002053000020CC
:10425000714100000300002010B5064A1056002BE3
:1042600004D003220449FFF78DFF10BDFFF78EFF36
:10427000FBE7C046530000207141000010B50A481A
:10428000FEF7D8FF0020094C0121205604F07EFFE4
:1042900000200121205604F0A9FFFFF785FF01202F
:1042A000FFF778FF002010BDB4040020520000206A
:1042B000F0B585B0032840D1002202AB0D6807336A
:1042C0000C894E681A70954223D0964232D10196DD
:1042D0001E00013200921A4B1A4F06CB3800FEF72F
:1042E000C1FE0020184B0021185604F07FFF002C5F
:1042F00014D029783800FEF7E5FE009B30705A4252
:104300005341F618019B013C5A425341A4B2ED18A7
:10431000EDE70122009501921D00DCE700200A4B29
:104320000121185604F062FF3800FEF7B7FE2000A6
:1043300005B0F0BD06204042FAE70120FBE7C04689
:10434000A4070020B40400205200002010B5024849
:10435000FEF77FFE002010BDB4040020024B034A8C
:104360001A6000229A807047A4070020001BB70043
:1043700010B5002A05D00023CC5CC45401339A4206
:10438000FAD110BD002A04D0821801700130824297
:10439000FBD170470023421E98B20133D15C002943
:1043A000FAD17047024AD3780133DBB2D370704739
:1043B0000819002070470000002307B50A4A0120B1
:1043C00013700A4A9370FFF745FF094801A900F0EE
:1043D000EDFE002806D10221019B054819430191F9
:1043E00000F0E8FE0EBDC046AC0700200819002012
:1043F00070100000002010B50A4CA378834207D14A
:104400006378834205D0002063780133DBB26370A8
:1044100010BD2378002BF6D000F060FD0028F2D00C
:10442000F6E7C04608190020044A5378002B03D051
:104430005378013BDBB2537000207047081900200D
:1044400010B5094B5A78002A03D05A78013AD2B2F3
:104450005A7000205A78824204D11B78834201D0DE
:1044600000F00EFD10BDC0460819002010B5064C26
:10447000282200212000FFF785FF0448FFF7D8FE1F
:10448000034B0020E36110BD08190020A543000084
:10449000B5430000F0B58BB01F0010AB029204CB07
:1044A000060000927F221B880A40019312AB1B88F2
:1044B0000D00039306AB5A70082218705A80009AB8
:1044C000002A46D001995A88521803998A1892B244
:1044D0005A80FFF78FFF041E38D104AB0890D880B4
:1044E000079007982D020643079607994A480D43FF
:1044F000079506AD6B88079A1B041343079307992A
:1045000000F058FE041E3DD102230790079A43484D
:1045100013430793079900F04DFE041E32D104ABFC
:104520000890D880FA2204AB9C1D23889200934205
:1045300005D23A4807A900F039FE00280CD0089BA4
:10454000002B29D10324FFF77BFF644220000BB02E
:10455000F0BD5A88D219BAE7FA2322885B009A4242
:1045600003D301202388FFF715FE079A02231600C4
:104570001E401A4209D12A4808A900F017FE041E5D
:10458000DDD00896FFF750FFE0E704AB9A1DDB880B
:1045900001339BB21380C5E7089B082209936B88FF
:1045A00029009BB26B80099800F026FE041EE9D119
:1045B000099B08330993029B002B09D03A0019008C
:1045C000099800F019FE041EDCD1099BFB18099321
:1045D000009B002B0FD0039B099ADB1B9B180993B0
:1045E0000998019A009900F007FE041ECAD1099BA0
:1045F000019AD3180993089B0A489B00079302234A
:10460000079A13430793079900F0D4FD041EB9D10C
:10461000FFF716FF040099E78C10000078100000E7
:10462000000415006C100000F0B5524B87B01B78E9
:10463000002B31D00027380007B0F0BD6388019A05
:104640009A4209D06388D31A042B05DD0120FFF7B5
:1046500001FE062676425EE02378012B5DD1EB68F1
:10466000002B08D0EB6860786188059A0839C0B2E1
:10467000083289B298473F4B1B78002B06D1AB78A4
:10468000002B03D0FFF798FE061E44D1394B1B7850
:10469000002BD0D1002F07D1374DEB78002BC9D09C
:1046A000EB78013BDBB2EB70344803A900F07EFDF0
:1046B000071EEBD10124039B2342E7D0FFF7CAFD7D
:1046C000039B2E48A3430393039900F073FD071E39
:1046D000DCD1AC70039B9B041B0D019346D005906D
:1046E00005A9274800F062FD06002000002E10D129
:1046F000059B04AC6B60019B042221000598AB6014
:1047000000F05CFD638806009BB2071E638095D0B5
:104710000120FFF79FFD3700B8E72378022B04D173
:104720002B69002BA7D02B699DE72378042B04D19C
:104730006B69002B9FD06B6995E72378062B04D11A
:104740002B6A002B97D02B6A8DE72378072B04D197
:10475000AB69002B8FD0AB6985E72378052B00D0A0
:1047600077E76B6A002B86D06B6A7CE702277F4273
:104770008CE7C046AC07002008190020701000002C
:1047800084100000F8B51D00002803D0002901D0D6
:10479000002A04D1002D1BD0FFF70EFE17E00E4CAF
:1047A000A3689A4214D86368834211D86368A768E3
:1047B0001618DB199E420BD800F000FD002806D128
:1047C0006368A2689B189E42E6D0002DE4D1F8BD34
:1047D0000C204042FBE7C04608190020013800B514
:1047E000062815D80C4B04F081FE07040B09110DA7
:1047F0000F001961002000BDD960FBE75961F9E79E
:10480000D961F7E71962F5E79961F3E75962F1E7D2
:104810000C204042EFE7C04608190020030006289C
:1048200016D80F20042B12D00130052B0FD00230E8
:10483000062B0CD00F38002B09D00130012B06D0ED
:104840000130022B03D00130032B00D00838704711
:1048500001204042FBE770B505000C00FFF7CAFDE0
:1048600000280AD12800FFF7D9FF002803DB210028
:10487000C0B200F01DFCFFF7E3FD70BD70B5050090
:104880000C00FFF7B7FD00280AD12800FFF7C6FF8C
:10489000002803DB2100C0B200F024FCFFF7D0FDAC
:1048A00070BD7FB50023052105900293019300930D
:1048B0000800043305AAFFF7EDFD07B000BD0000B6
:1048C00070B5040015009AB02C2802D100230422F0
:1048D00003E01B280ED100230822280001A9FFF7BE
:1048E00051FF002804D1524B01A91B68002B38D17D
:1048F0001AB070BD062802D101233022EDE70E2840
:10490000F6D0322815D14B4A4B4B116814229942EC
:1049100000D8043A0023280001A9FFF733FF00283C
:10492000E6D1434B1B68002BE2D001A932309847F7
:10493000DEE72F2807D16422002101A8FFF722FD1E
:1049400000236422C9E734280DD101A900230422E1
:104950002800FFF717FF011ECAD1354B1B68002B3B
:10496000C6D02000E3E7112814D10023334A01AC5C
:104970001370210004222800FFF704FF0028B7D19C
:104980002F4B22781A702A4B1B68002BB0D02100C5
:104990001130CCE713280ED100232C22280001A9C6
:1049A000FFF7F0FE0028A3D1214B1B68002B9FD0FE
:1049B00001A91330BBE7042810D1002304222800EA
:1049C00001A9FFF7DFFE002800D091E7184B1B6814
:1049D000002B00D18CE701A90430A8E7652800D19D
:1049E00074E7092801D10123ABE72A2801D101236B
:1049F0006DE7202800D07BE701AE002308223100BC
:104A00002800FFF7BFFE002800D071E7280001232F
:104A1000B28801990830FFF7B5FE002800D067E79B
:104A2000034B1B68002B00D162E7310099E7C046B9
:104A3000B0070020BC0700204F130000B50700207E
:104A4000B407002010B5041E3BD0FFF7A3FC0028DC
:104A500037D02000FFF79EFC202832D8A31CDB7F34
:104A6000013B0D2B2DD8230041331B78002B09D19E
:104A7000230042331B78002B04D1230043331B78DF
:104A8000002B1ED023003F331B78012B01D10020C7
:104A900010BD032B18D1E31CDB7F013B032B10D887
:104AA0001022231DDB7F93430A2B0AD124342000DC
:104AB000FFF770FC002804D02000FFF76BFC1A28D9
:104AC000E5D90C204042E3E7022BFAD10434E37F1E
:104AD000083B382BDBD9F4E770B58CB06A4601256A
:104AE0000300D01D0570002B25D000261A68134B3B
:104AF0001A60134B1E7000F053FC0400B04207D143
:104B0000FFF7B4FC0400B04205D0300000F081FC97
:104B100020000CB070BD0B492800FFF75FFE02A813
:104B200000F0DEFB030004000C33F1D102A800F01A
:104B300081FB0400ECE70C246442E9E7B0070020A5
:104B4000B5070020C148000010B5FFF76DFD10BD8E
:104B50001FB5002229211300029201920092012028
:104B6000FFF798FC05B000BDF0B5A3B01C0028AB62
:104B70001F8829AB1B780E00150004900593012AAD
:104B80001DD0002C03D10C20404223B0F0BD022ADE
:104B900015D12000FFF7FEFB402810D12100220094
:104BA00040311378180030383628ECD80A380628F7
:104BB000E9D9473B192BE6D901328A42F1D1731E5C
:104BC0001F2BE0D87B1E0D2B01D9FF2FDBD15A20E4
:104BD00002AB32000499C018FFF7CAFB07AB991962
:104BE0001A2302AA9B18DF87059B00265A1E9341B1
:104BF0007B2246310E7002A95218137055235B18A0
:104C00001D70032D1FD123780B75032BBBD8627841
:104C100010234A75110099430A29B4D1162002AB1A
:104C2000C018A11CFFF7A4FB637807AAD3189E70D5
:104C30000023282102930193009307AA6C330120DB
:104C4000FFF728FCA1E7022D0ED12000FFF7A2FB01
:104C50000200431E9BB201323F2B00D993E7210093
:104C600007A8FFF785FBE3E7042D01D13E22F6E715
:104C7000012DDDD087E737B5002506AC24880195E6
:104C80000094FFF771FF3EBD1FB500220321130002
:104C90000292019200920120FFF7FCFB05B000BDDB
:104CA00010B50400FFF7A6FB002806D1200000F095
:104CB00033FA002801D1FFF7C3FB10BDF0B50500A2
:104CC0000C001600B9B000280FD0FFF7BBFE071E7E
:104CD0000BD105A888222900FFF74AFB2000FFF727
:104CE00059FB002801D0002C02D10C20404224E0C6
:104CF00027AD402221002800FFF73AFB37AB1E709A
:104D00000F4B104A1F70104B1968CC2391420BD8DF
:104D100016226A44D37F2100013BD37717A8402293
:104D2000FFF726FB8A232E7000228821029201922F
:104D30000092012005AAFFF7ADFB39B0F0BDC046D7
:104D4000B50700204F130000BC0700201FB500224C
:104D5000052113000292019200920120FFF79AFBB5
:104D600005B000BD37B58024A525640004436D015E
:104D70002100280000F01EFA0023280001A9019359
:104D800000F014FA0028F3D1019BA342F0D13EBDFC
:104D9000002307B5104801A9019300F007FA002885
:104DA00019D18021019B490019430B48019100F062
:104DB00001FA00280FD1D02001A9400100F0F6F936
:104DC000002808D18021D020019B490219434001CD
:104DD000019100F0EFF90EBD0814000037B51F4C2B
:104DE0002568002D20D180202100400100F0DEF94F
:104DF000002803D00023236028003EBD184801A9E5
:104E000000F0D4F90028F5D12368164A93420DD159
:104E1000019B012B01D0144B23602368134A1A40D5
:104E2000A023DB02134323602568E5E7104A934281
:104E300008D1019B032BF0D0042B01D10D4BEBE7E4
:104E40000D4BE9E70D4A9342E7D1EC2021008003A6
:104E500000F0ACF90028E0D0CCE7C046B80700204D
:104E6000F4130000A0021000A1021000FFFFF0FFE9
:104E7000B0021000B1021000B2021000F0001000E9
:104E800013B50124102001A900F090F9002812D1D7
:104E9000019B2342F6D101A9013000F087F90028D7
:104EA00009D102230199194206D10B2001A900F072
:104EB0007DF9002808D016BD99430120019100F02A
:104EC00079F90028F1D0F6E7012301991942F2D0CF
:104ED00099430B20019100F06DF9ECE7002373B5C5
:104EE0000B2069460093019300F060F9041E09D17C
:104EF0000121009B0B4207D06946012000F056F9C2
:104F0000041E08D0200076BD0B20194300F052F992
:104F1000041EF1D0F6E70221009B0B4213D00525B9
:104F200004260F2001A900F041F9041EEAD1019BDB
:104F300033420FD10220013DFFF72CF9002DF0D1B3
:104F400004246442DEE70120194300F033F9041E13
:104F5000E5D0D7E700F022F9D4E7000070B50400EF
:104F6000264800F01FF9002803DB0120FFF712F9A3
:104F7000F6E7234800F016F9C3070CD4214D0120B1
:104F8000FFF708F9013D204800F00CF9002D32D060
:104F90001E4B9842F3D1022C0AD11D491D4800F046
:104FA00009F9802149031C4800F004F900240EE0AF
:104FB000032C05D11649174800F0FCF80021F2E750
:104FC00016491548042CEFD100F0F4F87C34FFF7B3
:104FD00005FFE8230005000D9B00984209D302203D
:104FE0002043FFF7BFFE0E49074800F0E3F800201A
:104FF00070BD2000F5E705204042F9E714100000DD
:10500000BC070200D10700000C000C009ED0AD10C0
:105010007DD51C3CAC0702008C10000052135213CB
:10502000612F52EF37B5134B134C023800930194A4
:10503000012803D8114B0093114B0193FA2500204E
:10504000ED00019B834209D1019B0025A34203D1BE
:105050002900084800F0AEF828003EBD0220FFF706
:1050600099F8013D009800F09DF8002DE9D1052543
:105070006D42F1E78C10000036265302AC070200A7
:10508000C3C15DD707B5A020002301A9400101934A
:1050900000F08CF8002807D1A020019B03494001B3
:1050A0001940019100F086F80EBDC046FFFBFFFFDE
:1050B00037B505000C000A4801A900F077F8002870
:1050C0000CD10123019AAB4011009943002C01D06F
:1050D000134319000248019100F06CF83EBDC04630
:1050E0000801020037B505000C000A4801A900F0CC
:1050F0005DF800280CD10123019AAB4011009943BF
:10510000002C01D0134319000248019100F052F81D
:105110003EBDC0460001020030B587B00822002124
:10512000050004A806F024FD164801A900F03EF889
:10513000041E24D1019B002B1BD0C020800208221A
:10514000184304A900F03AF8041E18D1049B0193F7
:10515000019B02A998B2C0239B020190062218432A
:1051600000F02CF80622040002A92800FFF700F93D
:1051700005E0054801A900F019F8041EE8D0200058
:1051800007B030BD08000C009C14000010B5FFF7FC
:1051900075F810BD10B5FFF7D9F810BD10B500F0C7
:1051A000D3FA10BD10B500F0E3FA10BD10B500F051
:1051B000E5FA10BD10B500F0EAFA10BDF7B507002A
:1051C000150006000B4B01911C88083CA4B2019B02
:1051D000D91B8919AC4204D33000AAB200F020FBDD
:1051E000FEBD2200300000F01BFB0028F8D12D1B73
:1051F0003619ECE756000020F7B507001500060049
:105200000B4B01911C88083CA4B2019BD91B891946
:10521000AC4204D33000AAB200F04AFBFEBD22002B
:10522000300000F045FB0028F8D12D1B3619ECE7C3
:1052300056000020002373B5040001A92248019301
:10524000FFF7B4FF214B019A05009A4204D1204890
:1052500001A9FFF7ABFF05000F26019B190E1A0CE1
:10526000E1713240190D314062729AB22172110A15
:1052700012093240334021716271A371FFF7AEFD14
:1052800000232060FF2022792384A3791202334077
:10529000134362791201024013430E4A1360E1790D
:1052A000627A090232400A43217A090101400A4820
:1052B0000A43824201D90D256D42084A934201D822
:1052C0000D256D42280076BDAC070200C3C15DD735
:1052D00048100000BC0700205213000051130000CA
:1052E00030B5002585B004000822290002A80195E8
:1052F00006F03EFCAC4202D1002005B030BD2900D2
:1053000020002822FFF73EF8214801A9FFF74EFFB1
:105310000028F2D10198002802D10C204042ECE78D
:10532000C025AD020822284302A9FFF747FF002845
:10533000E3D1039880B201900028EED0282221000A
:105340002843FFF73BFF0028D7D10F21FF25227903
:10535000A379607912020B400001134328400D4AE3
:1053600003431360627AE0790A40217A000209015E
:10537000024329400A43002BCFD0002ACDD0064952
:105380008A4202D8054A9342B6D80D20C6E7C046E5
:1053900008000C00BC07002052130000511300004D
:1053A00070B50125002804D005786B1E032B00D9A9
:1053B00001250020FFF7EAFE041E1ED1FF24FFF79F
:1053C0000DFDE823240120409B00984217D100F0F6
:1053D000E7F92800FFF7C2FD041E0CD12800FFF7F3
:1053E00021FE041E07D1023D012D06D9FFF7D0FC96
:1053F000002802D00400FFF7CDFE200070BDFFF7AB
:10540000EDFCAC2320409B009842E0D01024644285
:10541000F1E710B5FFF736FE041E09D100F07AFE61
:10542000041E05D1FFF7B6FE041E01D100F09AF963
:10543000200010BD1FB5002201AB0190198103208F
:1054400019000292FEF734FF05B000BD1FB500221F
:1054500001AB02901981032019000192FEF728FF89
:1054600005B000BD37B50500CF2826D003003B337B
:10547000DBB2012B21D90B246B460121D81DFFF78C
:10548000E5FF002820D16B46DB79AB4203D0013C1D
:10549000E4B2002CF0D10B246B460121D81DFFF79C
:1054A000D5FF002810D16B46DB79002B03D0013CDF
:1054B000E4B2002CF0D1012007E06B460121D81D99
:1054C000FFF7C4FF0028D6D000203EBDF0B50C0089
:1054D000002785B0009001928023261C9B019C42EE
:1054E00000D91E1C0A25B6B202AB0121D81CFFF759
:1054F000ADFF002808D102ABDB781B090F2B0CD0C5
:10550000013D2DB26B1CEFD100201BE0022103A84E
:10551000FFF79CFF00280ED0F6E7002DF4D0009B8B
:105520003100D819FFF792FF0028EDD1064B019A00
:105530001B781343EAD0A41BF719A4B23FB2002C86
:10554000CAD1012005B0F0BDC0070020F0B585B07C
:105550000AAC257801AC2070C3380C2866D803F05B
:10556000C5FF492835353E3E5B07656565653900F1
:105570000B0C49BA6370618005212D4B4D1E1B78C1
:10558000002B51D120000A002A4E7F3307785B00A0
:105590007B40013AF35C0130012AF7D15B0063558F
:1055A000200089B2FFF746FF4342584140B205B0A0
:1055B000F0BD0B0ADBB2002D04D163700023A17093
:1055C000E370D9E7802252421343F6E70023637069
:1055D0006380D1E7FF236370013BFF3BF8E70A0CD0
:1055E0006270002249BA22711A0A61806271A37145
:1055F0000821C2E70B0ADBB2002D09D16370130E3C
:10560000E370130C2371130AA1706371A271EFE7A9
:10561000802040420343F1E70B0C12BA49BA637091
:10562000618002920921A8E7E9B2B9E70020BEE74C
:10563000C007002046ED0000F0B585B007000391DB
:10564000302830D8194B1E7830220023BA425B41F3
:105650000A25F6B20293029B39000093300004231E
:10566000039AFFF773FF0400012805D13000FFF70C
:10567000F9FE0400012813D00120FEF78BFD002164
:10568000CF200B000A000091FFF760FF013DCF2003
:10569000FFF7E8FEEDB20120FEF77CFD002DDAD128
:1056A000200005B0F0BD024BCDE7C04640ED000044
:1056B00041ED0000F0B587B007000391FF2827D81F
:1056C0001F4B1E78FF220023BA425B410A25F6B227
:1056D0000293029B00220093390004233000FFF75D
:1056E00035FF0400012815D13000FFF7BBFE040090
:1056F00001280FD10421029A05A8FFF7E7FE040054
:10570000012807D1039B059A1A60200007B0F0BD5D
:105710000C4BD6E70120FEF73DFD0021CF200B000A
:105720000A000091FFF712FF013DCF20FFF79AFE1C
:10573000EDB20120FEF72EFD002DCAD1E5E7C046EF
:1057400042ED000043ED000013B50024CF202300FC
:10575000220021000094FFF7F9FECF20FFF782FE20
:10576000200016BD0020014B18707047C0070020B4
:1057700007B501A9FFF79EFF01980EBD10B5FFF711
:1057800099FF0023012800D0063B180010BD10B57A
:10579000FFF752FF0023012800D0063B180010BD80
:1057A000002313B51C4C1D4801A901932370FFF77A
:1057B00081FF002814D02378002B1BD0802069465D
:1057C0004001FFF777FF002822D01448FFF7D0FFF1
:1057D00070235021984301431048FFF7D8FF07E09A
:1057E00001230E4801A92370FFF764FF0028E2D1CE
:1057F000002016BD7C235021019A08489A4311438A
:105800000191FFF719FF0028F2D001232370D5E79B
:1058100006204042EDE7C046C007002024E8000013
:10582000F0B514000A27002587B003900291012CDF
:1058300001D125000134002623003200C82003993D
:105840000096FFF783FE012817D00120FEF7A2FC87
:105850000021CF200B000A000091FFF777FE013FE7
:10586000CF20FFF7FFFDFFB20120FEF793FC002FD2
:10587000DDD10620404207B0F0BDC820FFF7F2FDA1
:105880000128E2D1002D0CD03200210005A8FFF73D
:105890001DFE02AB1B7B029A13700128D5D100209C
:1058A000E9E72A0021000298FFF710FEF5E7000063
:1058B0000A23F0B5150089B0049005910293012DDB
:1058C00000D1013500272B003A00C720049900972A
:1058D000FFF73CFE012859D1C630FFF7C3FD012870
:1058E00054D12C0007AB1F8003908023261C9B0102
:1058F0009C4201D9324B1E88B6B2002F39D180228A
:10590000039B9201944200D803230B2004AA801821
:1059100010225242134303990370FFF78BFD0028B6
:1059200034D1059B3100D819FFF784FD00282DD113
:10593000244B1B78002B23D0A41BF719A4B23FB231
:10594000002CD2D11F4B07A819784B1E99418C1CF3
:105950002100FFF77BFD002818D107AB1C19631E3F
:105960001B78002B12D1023C2378C32B0ED109B037
:10597000F0BD802200239201A2425B410233C4E7C2
:10598000022107A8FFF756FD0028D5D00120FEF719
:1059900001FC0021CF200B000A000091FFF7D6FD8B
:1059A000CF20FFF75FFD0120FEF7F4FB029F013FD0
:1059B000FBB20293002B00D081E706204042D6E7DD
:1059C00044ED0000C0070020F0B59BB0140000912A
:1059D000412801D0542817D100230422200009A90E
:1059E000FEF7D0FE00280DD104AB5B7D05AA137035
:1059F000944B1968002905D0142004A908560121E8
:105A00001B6898471BB0F0BD422815D10023042223
:105A1000200009A9FEF7B6FE0028F3D104AB5B7D98
:105A200005AA1370874B19680029EBD0142004A92C
:105A300008561B680221E4E743283DD105AD002349
:105A40000C2229002000FEF79DFE0028DAD1092053
:105A5000285600281FDB0823EB567B4A1B01D3186E
:105A6000DB7A04011119DBB2CB7201238B726B89D3
:105A7000083B9BB20B81754B1988013189B21980A3
:105A80001988002903D11988013189B219801B882E
:105A900012199BB2D380022309AA107093806B88DD
:105AA000D3806B689360674B19680029AAD00820DF
:105AB00004211B682856A4E7442801D04B2823D191
:105AC00009AD0023042229002000FEF75BFE002818
:105AD00000D097E70020285604AB18710123EB563D
:105AE00004AA5371002B06D16B88574A083B010169
:105AF0009BB252181381534B1A68002A00D181E7D8
:105B000005211B6805AA7CE74A2812D100234422FC
:105B1000200009A9FEF736FE002800D072E74C4BA2
:105B20001A68002A00D16DE71B68199909A89847DF
:105B300068E7462803D0482838D04D2846D10626A5
:105B400005AD2900002310222000FEF71BFE011ED8
:105B500000D057E70C20EB8928563B4F02930301F6
:105B6000FB18019319730822AB5E6A8903926F8850
:105B70006D6809AAD560019D5781ED88029FAF42EB
:105B80001AD1002B14DD009DAB4211DA012793805E
:105B9000039B304D1C192F701460D180294B19685C
:105BA000002900D12EE731001B682AE70926C7E744
:105BB000938000230993F1E7009B102B00D821E785
:105BC00001230A000800FEF7DDFD1BE7452803D08E
:105BD00047281AD04C281AD1072609AD00230822DD
:105BE00029002000FEF7CEFD002800D00AE70020A3
:105BF0006B88285605AAA9881380134B04011B192A
:105C0000DB88994200D0FDE6C8E70826E5E7522880
:105C100000D0F7E609AD0123142229002000FEF789
:105C2000B1FD002800D0EDE60B4B6A681A601A68D7
:105C3000002A00D1E6E61B682A7CA96828689847F4
:105C4000E0E6C046E419002034190020C207002015
:105C5000EC190020AC070020E819002070B5094DB0
:105C60002B78DCB2002B0CD1B02221000648FEF7C5
:105C700089FB02200549FEF7B1FD01232B70044B7F
:105C80001C8070BDC107002034190020C9590000D4
:105C9000C2070020024B1860024B19607047C046D3
:105CA000E4190020EC190020F0B589B00592022813
:105CB00004D001256D42280009B0F0BD012945D16D
:105CC00007252F002E4E337834783078DBB2390038
:105CD0000130049303F084FDE4B22A4BC9B22401DD
:105CE00031701C19A37A002B2BD16B4610255D5700
:105CF000002DE0DB102200212000FEF743FB0123F2
:105D0000A372214B1A88013292B21A801A88002A93
:105D100003D11A88013292B21A801B889BB2E380A9
:105D2000059BDB07C7D52123E372002307AA157063
:105D3000502102930193009302200433FEF7AAFB43
:105D4000B9E7013DEDB2002DBDD1B2E70229B0D1D6
:105D5000042303260D490E480D780C780A78240197
:105D60000132324024180A70A27AEDB2002A02D120
:105D700007356DB2BCE7013BDBB2002BECD198E7F5
:105D8000C407002034190020C2070020C5070020E6
:105D9000A4190020F0B589B000282DDB00292BD0F4
:105DA000164B0701DB199C7AE6B2B446012C23D1CD
:105DB000002A21D06546DA7A442605AC2A4202D070
:105DC000DB7A07366372082220722000FEF7D0FAD1
:105DD0000A4B2200DD19EB88310063810023022089
:105DE0000293019300930C33FEF754FB002801D07B
:105DF0000920404209B0F0BD0620FAE7341900201E
:105E000070B50E00140088B0002832DB002930D0B5
:105E1000AF23DB009A422CD8174D01016B189A7AF8
:105E2000012A26D1DB8804AA938110705023548064
:105E3000062800DD0C3B6818C17A4525C90709D53D
:105E40009A2103890D489BB20068490107358842B1
:105E500000D255238021029302201023294301946C
:105E60000096FEF717FB002801D00E20404208B034
:105E700070BD0620FAE7C04634190020BC07002098
:105E8000F0B589B0050005911000002D2EDB184CEF
:105E90002F01E619B27A94466146D2B2012925D182
:105EA00005993951B0800020317B81421CD1327379
:105EB000F07A4621104200D00731002B00D1013B7F
:105EC0000693E41902AB1D75E38802AAD38200236E
:105ED000022002930193009306AA0833FEF7DAFA30
:105EE000002801D00E20404209B0F0BD0620FAE79C
:105EF0003419002070B586B0002827DB154D060147
:105F0000AA19937ADCB2012B20D16B466946187529
:105F1000D388CB8200239372D380D27A4921224244
:105F200000D005310293019300930220042305AAB7
:105F3000FEF7B0FA041E01D00924644210220021A9
:105F4000A819FEF71FFA200006B070BD06246442AF
:105F5000F9E7C04634190020F0B589B00592002851
:105F60002EDB184C0601A519AF7AFAB29446012F20
:105F700026D1AF7A002F02D1002009B0F0BD059ADA
:105F80003151AA802A7B002AF6D162462A73002B5F
:105F900000D1013B0693A41902AB1875E38802AA4D
:105FA000D3820023482102930193009302200833F7
:105FB00006AAFEF76FFA0028DFD00E204042DCE789
:105FC0000620FBE7341900201FB50400FEF7E2F9B4
:105FD000C3B2402B0BD800224A21029201920092B8
:105FE000022022000133FEF755FA04B010BD06204E
:105FF0004042FAE7F0B599B00F0019001EAB1B88BC
:1060000016000593002800DA80E0002900D17DE029
:106010003F4B05015C19A27A9446D2B21300624646
:10602000012A00D072E0022F5BD1062800DD6DE06E
:10603000E27A1A4200D169E0012E0CD108680028EA
:1060400004D0E17A0F43E772002002E0E37ABB4319
:10605000E37219B0F0BD032E0AD108681023E27A6A
:10606000002802D01343E372EEE79A43E272F0E7AE
:10607000042E0DD1264B0A685D19002A04D0402257
:10608000EB7A1A43EA72DFE74023EA7A9A43F9E7A8
:10609000022E3BD1059B3F2B38D81D4B00265D19A6
:1060A000EB88022506AC6380059B4022207008A87F
:1060B00007936570FEF75CF9482322005121280000
:1060C000029601960096FEF7E5F9C31CBCD1482361
:1060D0002200D1212800029601960096FEF7DAF9F7
:1060E000B2E70B6806AA0693E3881071D3800023F9
:1060F00056714F2102930193009302200833FEF75B
:10610000C9F90028A5D009204042A2E70620FBE7F4
:106110003419002073B50500FEF760FEE822030580
:1061200000241B0D9200934232D3264801A9FFF7A9
:106130003DF8041E2CD1019B234E244933401943C2
:1061400020480191FFF736F821002148002D21D089
:10615000FFF730F8AB211F48FFF72CF801211E484C
:10616000FFF728F821001D48FFF724F881211C487B
:10617000FFF720F81B48FFF715F80128FAD1802116
:10618000019B49021E4031430E480191FFF712F86E
:10619000200076BDFFF70EF8B9210E48FFF70AF888
:1061A00001210D48FFF706F821000C48FFF702F81F
:1061B00081210B48FEF7FEFF0A48FEF7F3FF012896
:1061C000FAD1DCE710140000FF8F88F800101101ED
:1061D000080201000C020100140201001C0201006F
:1061E0000402010018020100704710B5040002F01B
:1061F00065FE200010BD0000F8B504000C4B050042
:10620000083308C49B23FF279B00C61800212000E9
:10621000217067702181E161216261621022283062
:10622000383405F0A5FCB442F0D12800F8BDC046D2
:1062300048EE000010B50400080011001A00FFF736
:1062400033FD002806DB382301224343E3181A718B
:10625000FE325A7110BD13B504AC080011001A00CB
:1062600008CC24880094FFF7C5FE16BDF7B50E00D4
:106270001700050039001A003000FFF78BFD0021E0
:1062800088421BDB3824022374432C19237102F04B
:106290004FFD01902379022B0AD102F049FD019BA9
:1062A000C01A0F4B984203D80020FEF74DFCF1E7CF
:1062B00023790021032B03D0012323710800FEBDA5
:1062C00038207043A1817B882D186B827B680A007F
:1062D0006B6130000B00FFF7D3FD0121EEE7C046F4
:1062E0001F4E000070B5040000200D00FEF72CFCCE
:1062F0003821694364182079033843425841C0B2B9
:1063000070BD70B5040000200D00FEF71DFC3821A3
:10631000FD22694361180B790020033B134203D12E
:106320000C23C85E8B6AC01870BD382310B50400FA
:106330005343C918496900F05BFC200010BD3823A5
:106340004B43C018408A7047F8B5050000200E0086
:106350001C001700FEF7F8FB382070432D182B792E
:106360000025032B22D129000520FEF787FA2900FA
:106370000220FEF783FA002339003000A2B2FFF7B3
:106380003FFD002809DA0E3006D1094B18780028A5
:1063900002D1FEF7D9FBEEE7002401210520FEF72C
:1063A0006DFA01210220FEF769FA25002800F8BDE8
:1063B000AC070020F8B50D00382406006C4300201F
:1063C0003419FEF7C1FB2379FD22033B180010406E
:1063D000134209D10C22A35E002B05DD012302002C
:1063E0000100A081FEF7CEF938273A0000236A4366
:1063F0002371FF336371B218106A002801D005F0D1
:1064000091FB6F4338000021F2192C301162516268
:10641000916230181022A18105F0AAFB2800FFF735
:1064200069FDF8BDF7B538244C430419276A050007
:106430000E00002F06D1B820C00005F069FBA7624E
:10644000206260623824B82174432C190C23E25E68
:10645000C90017008A4200DD0F000020BBB2019383
:10646000D30F9142434138214E43AD19DBB2296A23
:10647000A068BAB2FEF786F90300002083420AD171
:106480002B6AAF626B62A368019ADF19A389A760C8
:106490009B1AA3810130FEBD70B50E0038240500A3
:1064A0000020FEF751FBFD2274432C192379033B96
:1064B000134202D00120404270BD31002800FFF796
:1064C00020FF0028F6D0A36A002B05D038214E43C8
:1064D000AD196B6A1878EFE70C22A35E002BF5D09C
:1064E00031002800FFF79EFF0028EFD1E2E7F0B56A
:1064F000050087B000200C0004920193FEF724FBF6
:106500003823FD226343EB1803931B79033B1342AB
:1065100004D000230293029807B0F0BD21002800A8
:10652000FFF7EFFE0028F4DD019B834200DD0190C0
:106530000023029338336343EB180593059B019ABC
:106540009B6A002A2AD0002B1DD0059B9E6A019BC6
:106550009E4200DD1E0038276743EF193200796A3A
:10656000049805F0E9FA7B6A9B197B62BB6A9B1B66
:10657000BB62049B9B190493019B9B1B0193029B91
:106580009B190293DAE7039B0C229B5E002BDCD065
:1065900021002800FFF746FF0028D6D138206043AD
:1065A0002D18AB6A002BB6D1039B0C21595E002934
:1065B000B1D10B000A002000062C05DCFFF760FCBF
:1065C0000020FEF7C1FAA6E7FFF7C6FCF8E770B5B2
:1065D0000500501E0E001C00082837D802F086FF68
:1065E0000511361C37433636430038204643AD1973
:1065F000002B36D00023E356002B32D105332B710C
:1066000024E038204643AD19002B2AD00023E3565E
:10661000002B26D10733F2E7002B17D00023E356D7
:10662000002B13DB382008224343EB181A71002398
:10663000E3564343EB1859710023E356043458439F
:106640002D1810350ECC0EC523682B6070BD382078
:106650004643AD19002B04D05B787F2B01D8032370
:10666000CDE70123CBE700210520FEF707F9002144
:106670000220FEF703F90423E15E00290CDC31005F
:106680002800FFF797FE01210520FEF7F7F801210A
:106690000220FEF7F3F8D9E73823FD207343EB1807
:1066A0001A79033A02420FD1226899819A60062E24
:1066B00005DD1033083407CC07C322681A603100A7
:1066C0002800FFF7AFFEDEE70022012311001000D3
:1066D000FEF758F8D7E7000010B513000A000100D4
:1066E0000148FFF774FF10BDC807002013B5002153
:1066F00007480B000A00009100F06CFA054C2000DE
:10670000FFF77AFD2000044A044902F0E7FE13BDBA
:10671000340A0020C807002000000020E9610000C2
:10672000F8B505000E0017000024BC4208D02B6805
:106730002800315D1B689847002801D00134F4E738
:106740002000F8BD70470300FC33196ADA699142F2
:1067500003D01B6AC018007E704701204042FBE74F
:106760000300FC33D8691B6AC01A01D50130FF3021
:1067700070470000F7B50193FA2380270025040035
:106780009B008360114B7F0008330E004560290099
:10679000009203603A00183005F0EAF92300200067
:1067A000FC332130DD613A001D622900FF3005F025
:1067B000DFF987239B00E3185D609D60009B20004C
:1067C0002375019B2661A5756375FEBD58EE00001B
:1067D00070B5040018260C49006900F091FD20698D
:1067E00000F0EAFB33000821207D084D4343EB18FD
:1067F000595602F03FFD0821607D4643AD196956A8
:1068000002F038FD70BDC046A08601007CEE00009D
:106810008A2300229B00C1540C3BC3185A609A6023
:106820000123837570470200FC32536810B50133B1
:106830009468DBB29C4202D054680155536010BD8D
:10684000F7B5019300230400150018009A422FD0D9
:106850002200FC32D36120691362012200F0EAFBBE
:10686000002826D02700206900F066FC18370100B8
:106870003800FFF7D8FF01262069B5420ED000F09E
:10688000B9FB0221206900F0BFFB206900F054FC35
:1068900001003800FFF7C7FF0136EDE700F0A1FB6C
:1068A000019B002B03D00321206900F0ADFBE8B26F
:1068B000FEBD0500FBE710B50123FFF7C1FF10BDCA
:1068C00010B50300827D002082420ED08722920004
:1068D0009C186268A4680132D2B2A24205D021336A
:1068E000FF331800FFF79FFF012010BD0300FC33AA
:1068F00099685A68914206D09A68805C9A68013219
:10690000D2B29A60704701204042FBE700228A23FE
:1069100070B59B00827505000E00C15C006900F037
:1069200089FB002806D10321286900F06DFB0224B1
:10693000200070BD872328009B00EA1853689468E4
:106940002130FF301C1B01D50134FF34002C0ED048
:106950002C69FFF7CBFFC1B2200000F0A9FB002893
:10696000E8D10321286900F04FFB0324E0E7002E63
:10697000DED00321286900F047FBD9E710B51830B5
:10698000FFF7B4FF10BD70B50400006900F0B2FB62
:10699000002814D0206900F0BBFB002810D020692B
:1069A00000F028FB0321206900F02EFB8C239B00C4
:1069B000E558002D39D10023FC34E361236270BD1A
:1069C000206900F0AFFB002809D0206900F0A5FB8A
:1069D000002804D0206900F0AAFB0028DFD020693D
:1069E00000F0A0FB002826D1206900F08CFB0028D5
:1069F000E5D0206900F09BFB002837D087239B005F
:106A0000E218536892689B1A01D50133FF33FF21C6
:106A1000002B05D020002130FF30FFF767FFC1B207
:106A2000206900F058FBA075C9E7236820001B69A6
:106A30009847A847BFE7206900F0DCFA20690321E6
:106A400000F0E2FA206900F072FB0028B7D087233B
:106A500000229B00E3185A609A600123A3758B23E0
:106A60009B00E3589342AAD09847A8E72200FC3243
:106A7000D369126A0133DBB22069934206D100F078
:106A8000B0FA0321206900F0BFFA98E700F054FB48
:106A9000010020001830FFF7C6FE206900F0AAFAB6
:106AA000EFE7000010B50248FFF76DFF10BDC046CC
:106AB0003C0A002010B51523142202490248FFF7B2
:106AC00059FE10BD741200203C0A002010B5024887
:106AD00001F0C0FD10BDC046700C002010B502488A
:106AE00001F0B8FD10BDC0466C0F0020F7B50124C1
:106AF0000326154F1549380000F079F91449154857
:106B000000F075F91449154800F071F91449154859
:106B100000F06DF91449154800F069F9144D154954
:106B2000280000F064F93900230000960022019447
:106B3000114801F025FD290000961E231F22019413
:106B40000E4801F01DFDF7BD68120020000800424C
:106B5000000C00426C120020001000427012002055
:106B60000014004274120020001800427812002025
:106B70007C120020001C0042700C00206C0F0020D2
:106B8000F7B5C31D0193002305000C00071D0093FA
:106B900039780A22200000F026F92E210600200074
:106BA00000F083F8009B36189B190093019B013776
:106BB0009F42EDD1E9790A22200000F014F9009BF0
:106BC0001818FEBD024B0833036000234360704772
:106BD000CCF2000030B503AC2578044CC571083404
:106BE000046001714271837130BDC046CCF2000077
:106BF000024B0833036041607047C046CCF200008E
:106C0000002270B5130004000A250878002816D069
:106C10000600303E0131092E07D86B43303B1B186C
:106C20009BB2FF2BF1D900200DE02E28FBD1032AC7
:106C3000F9D0501CA21813710023C2B2E5E7032A51
:106C400001D10120E37170BD41607047F8B50500C6
:106C50000E0017000024BC4208D02B682800315DCC
:106C60001B689847002801D00134F4E72000F8BDE4
:106C700070B505000C00081E07D005F08FFE2B68CC
:106C80000200210028005B68984770BD10B5FFF72F
:106C9000EFFF10BD10B503688A685B680968984704
:106CA00010BD10B5FFF7E4FF10BD10B503681B68F9
:106CB000984710BD030010B50A6808001268190053
:106CC000904710BD10B50249FFF7D2FF10BDC04676
:106CD000D8F2000070B50400FFF7CAFF05002000DD
:106CE000FFF7F0FF401970BD70B50500FFF7D2FF48
:106CF00004002800FFF7E6FF201870BD70B50400FF
:106D0000FFF7B6FF05002000FFF7DCFF401970BD5C
:106D100070B50500FFF7CEFF04002800FFF7D2FF93
:106D2000201870BDF0B58BB06B46140000220533FF
:106D300007000D00DA77012C00D80A2409AE2800DC
:106D4000210002F063FC0300CAB2080029001D0004
:106D500013003733DBB2092802D813003033DBB21B
:106D6000013E33708C42EAD931003800FFF780FFD2
:106D70000BB0F0BDF8B507000D00161E04D1036876
:106D8000C9B21B689847F8BD0A2A0CD100290BDA52
:106D90002D21FFF78AFF3200040069423800FFF717
:106DA000C1FF2018EFE7D2B229003800FFF7BAFF81
:106DB000E9E710B5FFF7DEFF10BD70B50400FFF77F
:106DC000D9FF05002000FFF77DFF401970BD10B509
:106DD000002A04D10368C9B21B68984710BDD2B21B
:106DE000FFF7A0FFFAE710B5FFF7F1FF10BD016054
:106DF00070479446F0B505AC25789C1E621E944100
:106E0000624606689207376824063A4322430724FD
:106E1000326000682140AD01002442682943022B02
:106E200000D05C030A4322434260F0BD30B5C02568
:106E30000368AD031C6812052A402243C0240904DC
:106E4000A40221400A431A6003685A6814435C6034
:106E500030BD0123026811680B43136003681A6890
:106E6000D207FCD4DA69D207F9D47047022302684A
:106E700011680B4313600268D3699B07FCD4704709
:106E800003681A7ED20702D41A7E9207FCD5704797
:106E9000002203685A8370470368187E4007C00FBA
:106EA00070470368187EC0097047802302685B4200
:106EB000117E0B43137670470368588B8007C00F11
:106EC000704702230268518B0B435383704703685A
:106ED000187EC007C00F70470368188DC0B2704796
:106EE00003681A7ED207FCD589B201201985704744
:106EF000012203689A757047012203681A7570476A
:106F00000123026811680B43136003681A68D207F3
:106F1000FCD4DA69D207F9D47047022302681168F9
:106F20000B4313600268D3699B07FCD47047036866
:106F3000DA699207FCD402211A688A431A60704702
:106F40000268936A5B0A5B020B43936203681A7ED2
:106F50005207FCD5986AC0B27047000010B50548CA
:106F6000490002F0CDFA80B2002801D0013880B289
:106F7000C0B210BD006CDC0270B50C00012611001F
:106F80006308026833403440156824075B072343D5
:106F90002B4313600468FFF7E1FF207370BD0123EA
:106FA000026811680B43136003681A68D207FCD4A7
:106FB000DA69D207F9D470470223026811680B43DB
:106FC00013600368DA699207FCD430215A8B8A4334
:106FD000110010220A435A830268D3695B07FCD46C
:106FE000704780230268DB02116851680B435360CD
:106FF00070470000036803491A685A680A405A60DB
:107000007047C046FFFFFBFF032230B50368114005
:107010001C68074D5A6809042A40E4061143640FAE
:107020005960052C03D10268D3695B07FCD430BDDD
:10703000FFFFFCFF30B503680400588B8006800F0B
:10704000022813D05D8B0020AD06AD0F032D2ED08E
:10705000588B800705D55D8B0020AD06AD0F012D47
:1070600025D15D8BAD06AD0F281E20D04800596A92
:107070001043C90AC0B2C902014359622368002AF9
:1070800008D11A7ED207FCD5588B01234007C00FC8
:1070900058400CE01A7E9207D00F002AF4DB1A7ECB
:1070A000D207F7D5C022596892020A435A6030BD10
:1070B0000368283319700268137EDB07D80F002B92
:1070C00003D1538BDB07F7D570470123508B400763
:1070D000C00F5840F8E70368283319700268137E20
:1070E0005B07D80F002B04DA0123508B4007C00F39
:1070F0005840704703681868C006400F0438434280
:107100005841C0B270470368187E4007C00F7047EF
:107110000368187EC007C00F70470368588BC0060D
:10712000C00F70470368187E8007C00F7047036860
:10713000588B0007C00F704703681A68D206520FB9
:10714000052A02D11A7E9207FCD528331878C0B2DE
:10715000704700000368104A934213D00F4A9342CD
:1071600012D00F4A934211D00E4A934210D00E4AC9
:1071700093420FD001200D4A4042934201D1063084
:1071800040B270470020FBE70120F9E70220F7E753
:107190000320F5E70420F3E700080042000C00425A
:1071A000001000420014004200180042001C00427F
:1071B000F8B5FFF7CFFF00282CDB1D4BC0001818D7
:1071C00005230479C3560320FF221840C0008240E3
:1071D000C021D2438140002B1DDB1F2501201D4013
:1071E000C026A840134D7600A851C0269B089B00DE
:1071F0005B19B6009F593A401143995128603F23CB
:1072000023408024E4011C430B4B5C805A7852B22B
:10721000002AFBDBF8BD0F200340083B07489B0812
:107220009B001B18D86902401143D961E7E7C046AB
:10723000DCF2000000E100E0000C004000ED00E0A6
:10724000F8B504000F0016001D00FFF7B1FF200085
:10725000FFF7FFFD1C21BB000B4071072268090CE2
:107260000B431360842322689375012F1AD11021D8
:10727000012E00D008390C4B69431868C00002F099
:107280003FF90722216802408B895203DB04DB0CA3
:1072900013438B81226803049089DB0C400B40036D
:1072A00018439081F8BDC046D4000020F7B5050012
:1072B000019308AB0C0016001F78FFF721FE280091
:1072C000FFF776FFC021C022890224040C409203FC
:1072D000BF073605274316403E430C2707222B687D
:1072E0003E431E60019B296813401A0080239B02C5
:1072F00013434B602A68D3695B07FCD4F7BD0000D9
:10730000F8B504000F00FFF753FF2000FFF747FE1A
:107310001422236879001A600C4B25681E6830001F
:1073200002F0EEF80A490400300002F0E9F87D238B
:10733000FA215843C90002F0E3F8FF23241AE86851
:10734000053C1C4098430443EC60F8BDD400002089
:1073500040420F003F20704713B56B460268D97159
:107360000733546819000122A04716BD10B5022149
:10737000006900F029FC10BD10B50321006900F080
:1073800039FC10BD10B51300084A0400D279002A58
:1073900003D101230020636010BD0A0000690321AE
:1073A00000F020FD0028F4D0F6E7C0465C00002085
:1073B00010B5054C03002068421C04D11A6818005F
:1073C00052699047206010BDA8000020074A0300C2
:1073D000106810B5411C03D001235B42136010BD3F
:1073E0000221186900F0F0FCF9E7C046A80000206F
:1073F00010B503784222023303700249024800F0BC
:107400009DFD10BD640000209C12002010B5017885
:10741000030042780020A12908D1212A05D117496B
:1074200017481A3A00F08AFD012010BD2129FCD12D
:10743000202A13D111491248193A00F01FFC962254
:107440000E4BD200196891420ED1DA7901231A420B
:107450000AD1FA2001F06CFF0020E6E7222A06D1CB
:107460009A78064BDA71EAE701F068FFF4E7232A1D
:10747000DBD15A88034B1A60D7E7C0465C00002076
:107480009C1200205800002070470000FA220021C2
:10749000054B92009A60054A08321A60044A596006
:1074A0001A6119767047C046801200200CF3000064
:1074B0009C120020704770B50F26CB1D0200324091
:1074C000D5B22C0000093034092A00DD07341C70C5
:1074D0005A1E994200D170BD1300EFE710B50400A9
:1074E000806904F01FFBA06A04F01CFB200010BDA3
:1074F00010B50400FFF7F2FF200001F0DFFC2000D0
:1075000010BD000070B5032908D1324B8000C0586F
:10751000002802D00368DB68984770BD82291FD11C
:10752000C3B22D4D5A01AA1891692C4C80010C4010
:10753000C0218905214391612949083340188021E0
:1075400050612A685B01D0180479494221430171D6
:107550007020995C81430800302101439954DCE795
:107560000029DAD1C024C1B21B4E4A01B218936877
:107570001A4DA4052B40234393601A4B8001C01879
:107580000B0050603068072608335B01195CB1437B
:107590000E0001213143195491690D402C4394612F
:1075A00070240F495161195CA1430C001021214343
:1075B000195491680C4CC3180C4080214903214395
:1075C00091609168890B89039160402259790A433F
:1075D0005A71A2E7A012002054170020FFFFFF8F6E
:1075E000C812002088140020FF3F00F0EFF3108342
:1075F00003600123436072B670470368002B02D119
:1076000062B6BFF36F8F704737B5056904006846EF
:10761000002D14D1FFF7EAFF019B621D013B02D34D
:10762000D57FEDB2FAE768460193FFF7E6FF002D3C
:1076300001D100203EBD206AE369C01AFAE7FFF7D6
:10764000D5FF22000025019B3432013B02D315787F
:10765000EDB2FAE768460193FFF7CFFF002DE8D0BF
:10766000206BE36AE9E70000F0B5FF2501264268D8
:10767000836811682B405B01CC186419A77AD31872
:107680003E43A672C6689C680B4FB60436093C4060
:1076900034439C6083682B405B01D2189468A40B30
:1076A000A4039460402283682B4008335B01CB180D
:1076B00019790A431A71F0BDFF3F00F0F7B505696B
:1076C00004000E0017006846002D43D1FFF78EFF1F
:1076D000019B601D013B5A1C0BD0C27F591E002A22
:1076E00005D168460193FFF788FF2800FEBD0B0017
:1076F000F1E768460193FFF780FFE369AF420AD0E4
:10770000226A9A4207D95A1CE261A269D3181B78EF
:1077100073550135F1E7226A9A42E6D10023E3610D
:10772000013368462361FFF761FF22000021019BBE
:10773000671D013B3532581CD3D0F97710785E1E97
:10774000002805D0200011700193FFF78DFFECE7B2
:107750003300F0E7FFF74AFF2000019B3430013B84
:107760005A1C06D00278591ED5B2002AB9D00B0097
:10777000F6E7684601930025FFF73FFFE36ABD4245
:1077800002D0226B9A421CD8226B9A42ADD10023C0
:107790006846E3622361FFF729FF270022000021EA
:1077A000019B3437013B3532581C9AD03970107820
:1077B0005E1E00280DD0200011700193FFF754FFCA
:1077C000EBE75A1CE262A26AD3181B7873550135A5
:1077D000D4E73300E8E7F7B582684368D2B2110016
:1077E00004000831186849014118C879C00729D533
:1077F00001255201CD719B189A6861699204920C1F
:10780000002923D12262226A002A41D0A26A65613E
:1078100068465A60FFF7EAFE342294462200019B34
:10782000671D013BA4443532591C2DD06146FD77BC
:107830000978581ECEB2002905D00193684615700C
:10784000FFF7DBFEF7BD03001670EDE72263226B46
:10785000002A1DD0002227006261A26968465A6092
:10786000FFF7C4FE019B621D9446013B3437303262
:10787000591C09D061463D70C97F581ECEB20029FF
:10788000DBD103001670F3E768460193FFF7B5FEFE
:107890002000FFF7E9FED5E713B56A4600230C0088
:1078A000D01DD371FFF7A4FD23681818206001F0E4
:1078B000BBFD6B46D91D01F083FD236818186B468C
:1078C0002060D87916BD000003290ED180220E4B0E
:1078D00062311B68FF31585C524202435A5468229D
:1078E0006339FF32FF39995470470129FCD1802256
:1078F000054B24311B68FF31585C524202435A54F5
:1079000028222339FF32EDE75417002070B50025F7
:107910002F4B012104001A201D7001F037FC0121BA
:107920001A2001F063FC2B4B012119201D7001F07E
:107930002DFC0121192001F059FC2023264A0F209B
:10794000D1690B43D361012224490B7813430B7097
:10795000234B19788143197006211D78294319702A
:1079600020490D782A430A701A7802401A70602262
:1079700019780A431A701C4B1C4A5A805A78D2094B
:10798000FCD11B4801F0CEF91A4D280001F060FD32
:10799000280001F073FD7F212B68C1201A78800038
:1079A0000A401A70042219780A430C211A701A89A5
:1079B0008A4311491A810A581202120A0A50802277
:1079C0000A6019787E3A0A431A700123237070BD49
:1079D000BD120020BC1200200004004058440041A9
:1079E0003C44004159440041000C00400640000066
:1079F000C18300005417002000E100E00078002857
:107A000010D00121084B1B681A898A431A81082269
:107A1000198B0A431A830422198B0A431A83002202
:107A2000024B1A607047C046541700204C170020C4
:107A30000A000E498B699B0B9B038B610B6802212B
:107A4000FF3319729879823901439971197A89073C
:107A5000FCD57F20064B0240997A81431143802256
:107A60009972997A52420A439A72704754170020C9
:107A70000050004110B50B790C00002B0CD1080010
:107A8000FFF7C4FC002801D0012010BD094A93690A
:107A90009B0B9B039361F7E701F0C6FC210001F00B
:107AA000B3FC0028F0D1034A93699B0B9B039361BD
:107AB000EBE7C04654170020F7B50D001100832AEC
:107AC00019D1EBB2324C5A01A21891693148AD017B
:107AD0000840C0218905014391612F4920686D1834
